:100000000C94E3000C940B010C940B010C940B0169
:100010000C940B010C940B010C940B010C940B0130
:100020000C940B010C940B010C940B010C940B0120
:100030000C940B010C940B010C940B010C940B0110
:100040000C94E5060C940B010C9440090C94830964
:100050000C940B010C940B010C940B010C940B01F0
:100060000C940B010C940B01005EBCE2613FDD833C
:10007000C29C7E20A3FD1F419DC3217FFCA2401E88
:100080005F01E3BD3E6082DC237D9FC1421CFEA078
:10009000E1BF5D0380DE3C62BEE0025CDF81633D68
:1000A0007C22C09E1D43A1FF4618FAA427799BC558
:1000B00084DA3866E5BB5907DB856739BAE4065848
:1000C0001947A5FB7826C49A653BD987045AB8E638
:1000D000A7F91B45C6987A24F8A6441A99C7257B28
:1000E0003A6486D85B05E7B98CD2306EEDB3510F18
:1000F0004E10F2AC2F7193CD114FADF3702ECC9208
:10010000D38D6F31B2EC0E50AFF1134DCE90722CF7
:100110006D33D18F0C52B0EE326C8ED0530DEFB1E7
:10012000F0AE4C1291CF2D73CA947628ABF51749D7
:100130000856B4EA6937D58B5709EBB536688AD4C7
:1001400095CB2977F4AA4816E9B7550B88D6346AB7
:100150002B7597C94A14F6A8742AC896154BA9F7A7
:10016000B6E80A54D7896B35000000070002010089
:100170000003040600000000000000000102040863
:100180001020408001020408102001020408102001
:10019000040404040404040402020202020203032D
:1001A00003030303000000002300260029000000D1
:1001B0000000250028002B0000000000240027007C
:1001C0002A00C5013F0A11241FBECFEFD8E0DEBFD1
:1001D000CDBF11E0A0E0B1E0E0EEFDE102C005908E
:1001E0000D92AC32B107D9F712E0ACE2B1E001C038
:1001F0001D92A030B107E1F711E0C6ECD1E004C0D8
:100200002297FE010E94EA0EC23CD107C9F70E9464
:10021000950A0C94EE0E0C94000061E08DE00E94B3
:1002200049086CE271E080E090E00E945E0760E0C7
:100230008DE00E9449086CE271E080E090E00C944F
:100240005E0740E855E260E070E086E591E00E94DC
:10025000BE098CE291E00E94FA0261E08DE00E940A
:10026000100860E08BE00E9410080E940D010E94BF
:100270000D010C940D01CF92DF92EF92FF920E943C
:10028000CA07BC01882777FD8095982F0E94AB0D87
:1002900020E030E040EA5BE30E945F0E6B017C01EE
:1002A0009B01AC0160E070E080EA90E40E94A70C42
:1002B000A70196010E94100D20E030E040E251E4D9
:1002C0000E945F0E9B01AC0160E070E08AEF93E456
:1002D0000E94100DFF90EF90DF90CF900895CF9285
:1002E000DF92EF92FF92CF93DF938BE00E947F0823
:1002F000EC018CE291E00E94CC0385E190E00E9449
:100300003B016B017C0167E071E086E591E00E94B2
:10031000E00A60E08CE291E00E94C004AB01BC0105
:1003200022E030E086E591E00E94A50C69E071E0F2
:1003300086E591E00E94E00A4AE050E0BE0186E5D1
:1003400091E00E94B20B69E071E086E591E00E94C5
:10035000E00A22E030E0B701A60186E591E00E94C4
:10036000A50C6BE071E086E591E00E94FD0A0E9419
:100370000D016AE070E080E090E0DF91CF91FF90A6
:10038000EF90DF90CF900C945E076CE08FE391E0EC
:100390000E941E066FE371E08CE291E00C94D101A3
:1003A0000895FC0180ED91E0928B818B76836583CB
:1003B0001482108289E0818381E08283838308959F
:1003C000CF93DF93EB0167E0CE010E94D90691E065
:1003D0002F81821390E0892FDF91CF910895EF92C2
:1003E000FF920F931F93CF93DF93EC018B01E42EC9
:1003F0008D819E810E940C06F12CB8018D819E8119
:100400000E944106882359F0FE1006C0B801CE01B3
:100410000E94E001811104C0F394EF1470F780E0B2
:10042000DF91CF911F910F91FF90EF900895EF9280
:10043000FF920F931F93CF93DF9300D0CDB7DEB71A
:100440007C018A01FC018581968169837A830E94FF
:10045000E40469817A81F701858196810E94E00533
:1004600040E06EEBF701858196810E948105F701DE
:10047000858196810E94C305F8018083F7018581FB
:1004800096810E94C305F8018183F70185819681D9
:100490000E94C305F8018283F701858196810E943D
:1004A000C305F8018383F701858196810E94C30506
:1004B000F8018483F701858196810E94C305F801C4
:1004C0008583F701858196810E94C305F8018683A3
:1004D000F701858196810E94C305F8018783F701A2
:1004E000858196810E94C305F8018087F701858187
:1004F00096810F900F90DF91CF911F910F91FF90F8
:10050000EF900C94E404CF93DF93EA010E9417026A
:1005100068E0CE010E94D90691E02885821390E020
:10052000892FDF91CF910895EF92FF921F93CF9380
:10053000DF9300D0CDB7DEB77C01FC0185819681C9
:1005400069837A830E94E40469817A81F701858155
:1005500096810E94E00540E064EBF7018581968179
:100560000E948105F701858196810E945605182F0A
:10057000F701858196810E94E40481E0111180E0F9
:100580000F900F90DF91CF911F91FF90EF90089502
:10059000CF93DF93CDB7DEB729970FB6F894DEBFC0
:1005A0000FBECDBFFB0120812031D1F0AE014F5FE6
:1005B0005F4F0E948302882379F08D818F3351F041
:1005C00018F48F3169F008C08F3541F08F3721F46E
:1005D0008CE007C08AE005C080E003C08BE001C06A
:1005E00089E029960FB6F894DEBF0FBECDBFDF912C
:1005F000CF910895EF92FF920F931F93CF93DF93C4
:10060000CDB7DEB761970FB6F894DEBF0FBECDBF92
:100610008C01FC01858196810E940C06F8011482F0
:10062000FF24F394BE01665F7F4FF80185819681B8
:100630000E9441068823C9F1BE01665F7F4FC80151
:100640000E94E001882371F3F8018081811108C0C4
:10065000BE01665F7F4FC8010E949402811122C0D3
:10066000AE014F5F5F4FBE01665F7F4FC8010E94C2
:100670001702F801E180BE01665F7F4FC8010E944A
:10068000C8028E1518F4F801818106C0BE01665FAC
:100690007F4FC8010E94C802F801818384818F5F67
:1006A0008483C0CFF801F082DBCF61960FB6F89457
:1006B000DEBF0FBECDBFDF91CF911F910F91FF9095
:1006C000EF900895CF93DF93CDB7DEB729970FB69C
:1006D000F894DEBF0FBECDBFAE014F5F5F4F0E94EB
:1006E000170281E09981911101C080E029960FB62F
:1006F000F894DEBF0FBECDBFDF91CF910895CF92AA
:10070000DF92EF92FF920F931F93CF93DF93EC0151
:100710008B01452BE1F08B818823C9F08881811101
:1007200016C00E942F076B017C0160E070E0CE01D3
:100730000E94620381110BC00E942F076C197D0972
:100740008E099F096E3E72408105910570F3F80194
:1007500080818A3049F08B3061F0893079F46EE520
:1007600070E080E090E00EC06CEB70E080E090E024
:1007700009C067E771E080E090E004C06EEE72E0CF
:1007800080E090E0DF91CF911F910F91FF90EF906B
:10079000DF90CF900C945E07CF93DF93EC018D81B7
:1007A0009E810E94E4048D819E810E9408064881FA
:1007B00064E48D819E810E9481058A81882351F0A5
:1007C000BE016F5F7F4F40E050E0CE01DF91CF91DF
:1007D0000C947F03DF91CF9108958F929F92AF92F7
:1007E000BF92CF92DF92EF92FF921F93CF93DF934E
:1007F000FB01EA01698170E0762F66278881682B0A
:1008000080818232B1F18832A1F1803109F078C063
:100810001F8175956795882777FD8095982F0E9491
:10082000AB0D20E030E040E85EE30E94A70C6B01D6
:100830007C01612F70E08E81681B7109882777FD2C
:100840008095982F0E94AB0D4B015C01612F70E0E9
:1008500080E090E00E94A90D9B01AC01C501B401AC
:100860000E94100D9B01AC01C701B6010E94A80CAB
:1008700043C08C818F3381F198F48F3109F040C0EF
:1008800093E0759567959A95E1F7882777FD8095B0
:10089000982F0E94AB0D20E030E040E05FE32AC0DB
:1008A0008F3569F08F3761F5882777FD8095982F10
:1008B0000E94AB0D20E030E040E85DE31BC0759581
:1008C0006795882777FD8095982F0E94AB0D20E0D3
:1008D00030E040E05EE30EC07595679575956795CD
:1008E000882777FD8095982F0E94AB0D20E030E09F
:1008F00040E85EE30E945F0E562F472F382F292FC6
:10090000652F742F832F922FDF91CF911F91FF902E
:10091000EF90DF90CF90BF90AF909F908F90089511
:10092000EF92FF920F931F93CF93DF93CDB7DEB774
:1009300029970FB6F894DEBF0FBECDBF8C017B01A7
:10094000AE014F5F5F4F0E948302882341F0AE01EA
:100950004F5F5F4FB701C8010E94ED0304C060E024
:1009600070E08EEF92EC29960FB6F894DEBF0FBEC2
:10097000CDBFDF91CF911F910F91FF90EF90089520
:100980000F931F93CF93DF93CDB7DEB728970FB6A2
:10099000F894DEBF0FBECDBF8C01462FBE016F5F46
:1009A0007F4F0E94EF01BE016F5F7F4FC8010E9421
:1009B000900428960FB6F894DEBF0FBECDBFDF912E
:1009C000CF911F910F910895FF920F931F93CF9393
:1009D000DF93FC010081C181D281F8948981F02EDE
:1009E000F0948F21898378941DE7115029F182E0DA
:1009F00090E00E94840788818023B9F3F8948A816B
:100A00008F218A838981802B8983789480EE91E07D
:100A10000E948407F89489818F21898386E490E07D
:100A20000E9484078881802311E009F010E0789407
:100A30008AE991E00E948407812FDF91CF911F9175
:100A40000F91FF9008951F93CF93DF93FC011081C6
:100A5000C181D281912F909560FF12C0F8948A8154
:100A600089238A838981812B89838AE090E00E948F
:100A700084078A81812B8A83789487E390E011C070
:100A8000F8948A8189238A838981812B898381E4EF
:100A900090E00E9484078A81812B8A83789485E084
:100AA00090E0DF91CF911F910C9484070F931F93D7
:100AB000CF93DF93FC011081C181D281F8948981A9
:100AC000812B89838A81012F009580238A8383E08B
:100AD00090E00E9484078981802389838AE090E0E6
:100AE0000E948407C881789485E390E00E9484077F
:100AF0001C2381E009F480E0DF91CF911F910F91D9
:100B00000895CF92DF92EF92FF920F931F93CF93AE
:100B1000DF931F92CDB7DEB76C01E62E08E010E040
:100B2000FF24F39461E09F2D9E2109F460E0C6014B
:100B300049830E942305FF0C0150110949810115C9
:100B4000110581F7411115C0F894D6011196ED9168
:100B5000FC91129791818C918095892381831196C4
:100B6000ED91FC91129792818C91809589238283DB
:100B700078940F90DF91CF911F910F91FF90EF909C
:100B8000DF90CF900895EF92FF920F931F93CF9332
:100B9000DF938C01C8E0D0E0F12CEE24E394C8018F
:100BA0000E9456058111FE28EE0C21972097B9F777
:100BB0008F2DDF91CF911F910F91FF90EF900895AE
:100BC000CF92DF92FF920F931F93CF93DF931F92E9
:100BD000CDB7DEB78C01F62E40E065E579830E9443
:100BE0008105CF2C7981D72E88E0F82EF60161910E
:100BF0006F0140E0C8010E948105FA94B9F70F9097
:100C0000DF91CF911F910F91FF90DF90CF900895CA
:100C100040E06CEC0C948105FC011386158614866B
:100C200027E030E0DF01A20FB31F13961C922115BD
:100C3000310519F021503109F5CF08951F93CF9355
:100C4000DF93EC01162F60E0812F0E941008612FC6
:100C500070E0FB01E458FE4FE491E883FB01E057AC
:100C6000FE4FE491F0E0EE0FFF1FEC55FE4F859133
:100C700094919A838983CE01DF91CF911F910C9437
:100C80000C06AF92BF92CF92DF92EF92FF920F933A
:100C90001F93CF93DF931F92CDB7DEB75C01E62E93
:100CA000D72EFC01858581115DC0C5010E94E40439
:100CB000811105C0F5011386158614866EC040E0CB
:100CC00060EFC5010E94810501E0F12CC12C11E00B
:100CD000C5010E945605682FC50169830E9456050B
:100CE0006981613019F48130B9F433C02F2D30E0BF
:100CF00068131BC0F5018385181730F4E20FF31F4A
:100D00008381802349F402C0181731F060E0193064
:100D100058F4F501148708C0F501EF0DF11D83812A
:100D2000802B838361E009C0C12EF501E20FF31F20
:100D30008381902F909589238383C5010E94230589
:100D40001F5F000F11F4F39401E0F7E0FF1508F0C6
:100D5000BFCF113438F0F501C386C11018C081E04F
:100D6000858715C0F50113861586148680E0EE2D63
:100D7000FD2D20E030E0D501A20FB31F13969C910A
:100D800091932F5F3F4F28303105A9F706C0F50139
:100D90008381882339F381E0EACF0F90DF91CF91EF
:100DA0001F910F91FF90EF90DF90CF90BF90AF9089
:100DB0000895DC0180E0615038F0ED91E827F0E023
:100DC000E859FF4F8491F7CF08951F920F920FB605
:100DD0000F9211242F933F938F939F93AF93BF93C1
:100DE00080914E0190914F01A0915001B09151011D
:100DF00030914D0123E0230F2D3720F40196A11DE2
:100E0000B11D05C026E8230F0296A11DB11D209338
:100E10004D0180934E0190934F01A0935001B093E8
:100E200051018091520190915301A0915401B091D0
:100E300055010196A11DB11D80935201909353015C
:100E4000A0935401B0935501BF91AF919F918F91A1
:100E50003F912F910F900FBE0F901F9018952FB7B5
:100E6000F89460914E0170914F01809150019091E2
:100E700051012FBF08953FB7F8948091520190918E
:100E80005301A0915401B091550126B5A89B05C00E
:100E90002F3F19F00196A11DB11D3FBF6627782F86
:100EA000892F9A2F620F711D811D911D42E0660FDF
:100EB000771F881F991F4A95D1F70895CF92DF9227
:100EC000EF92FF92CF93DF936B017C010E943B076F
:100ED000EB01C114D104E104F10479F00E943B0755
:100EE0006C1B7D0B683E7340A0F381E0C81AD108EB
:100EF000E108F108C851DC4FECCFDF91CF91FF90B2
:100F0000EF90DF90CF9008950197009739F0880F08
:100F1000991F880F991F02970197F1F70895789408
:100F200084B5826084BD84B5816084BD85B58260EE
:100F300085BD85B5816085BDEEE6F0E0808181608C
:100F40008083E1E8F0E0108280818260808380818C
:100F500081608083E0E8F0E0808181608083E1EB64
:100F6000F0E0808184608083E0EBF0E0808181604C
:100F70008083EAE7F0E08081846080838081826002
:100F800080838081816080838081806880831092EB
:100F9000C10008958E3008F08E50877020910601B0
:100FA00090E4299F90011124822B80937C008091F2
:100FB0007A00806480937A0080917A0086FDFCCF6D
:100FC000809178002091790090E0922B08958330F1
:100FD00081F028F4813099F08230A1F008958630B4
:100FE000A9F08730B9F08430D1F4809180008F7DF2
:100FF00003C0809180008F7780938000089584B52E
:101000008F7702C084B58F7D84BD08958091B00034
:101010008F7703C08091B0008F7D8093B0000895DA
:10102000CF93DF9390E0FC01E458FE4F2491FC0144
:10103000E057FE4F8491882349F190E0880F991F73
:10104000FC01E854FE4FA591B49182559E4FFC01DE
:10105000C591D4919FB7611108C0F8948C912095E7
:1010600082238C93888182230AC0623051F4F894E1
:101070008C91322F309583238C938881822B8883A7
:1010800004C0F8948C91822B8C939FBFDF91CF91F9
:1010900008950F931F93CF93DF931F92CDB7DEB7C1
:1010A000282F30E0F901E859FE4F8491F901E45806
:1010B000FE4F1491F901E057FE4F04910023C9F04F
:1010C000882321F069830E94E7076981E02FF0E01F
:1010D000EE0FFF1FE255FE4FA591B4919FB7F89414
:1010E0008C91611103C01095812301C0812B8C93D9
:1010F0009FBF0F90DF91CF911F910F910895CF93D4
:10110000DF93282F30E0F901E859FE4F8491F9016F
:10111000E458FE4FD491F901E057FE4FC491CC231F
:1011200091F081110E94E707EC2FF0E0EE0FFF1F16
:10113000EC55FE4FA591B4912C912D2381E090E0C8
:1011400021F480E002C080E090E0DF91CF9108952B
:10115000FC0124853585F901E05CFF4F8081918198
:10116000F901EE5BFF4F20813181821B930B8F735E
:1011700099270895FC0184859585FC01E05CFF4F6B
:1011800040815181FC01EE5BFF4F2081318142178C
:10119000530741F00190F081E02DE80FF91F8081A5
:1011A00090E008958FEF9FEF0895FC018485958569
:1011B000FC01E05CFF4F40815181FC01EE5BFF4F81
:1011C000208131814217530779F0A081B181A80FA6
:1011D000B91F8C91208131812F5F3F4F2F733327AF
:1011E0003183208390E008958FEF9FEF0895FC01F5
:1011F00081A1882329F0A489B5898C9186FFFBCF32
:1012000011A20895CF93DF93FC0126853785D9017C
:10121000A05CBF4F8D919C91119701968F73992778
:10122000E901CE5BDF4F4881598184179507D9F3D7
:101230000D90BC91A02DA20FB31F6C93A685B7850E
:10124000A05CBF4F11969C938E93A689B7892C9171
:1012500081E090E0078C02C0880F991F0A94E2F7A2
:10126000282B2C9381E081A30488F589E02D8081CF
:101270008064808381E090E0DF91CF9108950895AC
:101280001F920F920FB60F9211242F933F934F93FB
:101290008F939F93EF93FF938091C00082FD1CC0BA
:1012A0004091C6008091FC019091FD0101968F73E1
:1012B00099272091FE013091FF018217930771F069
:1012C000E091FC01F091FD01E454FE4F40839093C6
:1012D000FD018093FC0102C08091C600FF91EF9157
:1012E0009F918F914F913F912F910F900FBE0F9033
:1012F0001F90189586E591E00E94A808892B11F0AF
:101300000C943F0908951F920F920FB60F9211246B
:101310002F933F938F939F93EF93FF932091B80167
:101320003091B9018091BA019091BB01281739071A
:1013300031F48091C1008F7D8093C10014C0E09191
:10134000BA01F091BB01E858FE4F20818091BA01AB
:101350009091BB0101968F7399279093BB01809365
:10136000BA012093C600FF91EF919F918F913F9119
:101370002F910F900FBE0F901F901895CF92DF9274
:10138000EF92FF92CF93DF93EC016A017B0141154D
:1013900081EE580761057105F9F0EC89FD8981E05E
:1013A00090E008A002C0880F991F0A94E2F780839A
:1013B00060E079E08DE390E0A70196010E94C60EFF
:1013C000215031094109510956954795379527957F
:1013D000211580E1380798F0EC89FD89108260E8DA
:1013E00074E88EE190E0A70196010E94C60E21509C
:1013F0003109410951095695479537952795E8894F
:10140000F9893083EA89FB89208319A2EE89FF8953
:10141000408181E090E09C010C8C02C0220F331FC0
:101420000A94E2F7422B4083EE89FF8940819C01B8
:101430000D8C02C0220F331F0A94E2F7422B408327
:10144000EE89FF8940819C010E8C02C0220F331F60
:101450000A94E2F7422B4083EE89FF8920810F8CAA
:1014600002C0880F991F0A94E2F780958223808337
:10147000DF91CF91FF90EF90DF90CF900895109281
:1014800059011092580188EE93E0A0E0B0E08093FB
:101490005A0190935B01A0935C01B0935D0181E1DF
:1014A00091E090935701809356018CEB91E09093DB
:1014B00063018093620188E791E0909365018093D6
:1014C000640185EC90E0909367018093660184EC61
:1014D00090E0909369018093680180EC90E0909394
:1014E0006B0180936A0181EC90E090936D01809391
:1014F0006C0182EC90E090936F0180936E0186EC1A
:1015000090E0909371018093700184E08093720168
:1015100083E08093730187E08093740185E080937A
:10152000750181E08093760108950E948F070E94E3
:101530002101CAE7D9E00E946F012097E1F30E94E0
:101540007A09F9CFCF92DF92EF92FF920F931F9318
:10155000CF93DF936C017A01EB01E60EF71E00E0FA
:1015600010E0CE15DF0561F06991D601ED91FC9197
:101570000190F081E02DC6010995080F191FF1CFE8
:10158000C801DF91CF911F910F91FF90EF90DF90F5
:10159000CF9008956115710581F0DB010D90002059
:1015A000E9F7AD0141505109461B570BDC01ED91A4
:1015B000FC910280F381E02D099480E090E0089591
:1015C0000C94CA0ADC01ED91FC910190F081E02DB0
:1015D00009940F931F93CF93DF93EC016DE00E946A
:1015E000E20A8C016AE0CE010E94E20A800F911F9C
:1015F000DF91CF911F910F9108950F931F93CF9378
:10160000DF93EC010E94CA0A8C01CE010E94E90A14
:10161000800F911FDF91CF911F910F9108958F92AD
:101620009F92AF92BF92CF92DF92EF92FF920F9371
:101630001F93CF93DF93CDB7DEB7A1970FB6F89482
:10164000DEBF0FBECDBF7C01C42EE52FCB01D22E55
:1016500019A221E02D1510F02AE0D22E8E010F5D87
:101660001F4F8D2C912CA12CB12C6C2D7E2FA50100
:1016700094010E94C60E8C2DD29E80191124015017
:1016800011098A3014F4805D01C0895CF8018083FF
:10169000211531054105510521F0C22EE32FCA0164
:1016A000E4CFB801C7010E94CA0AA1960FB6F89408
:1016B000DEBF0FBECDBFDF91CF911F910F91FF9085
:1016C000EF90DF90CF90BF90AF909F908F90089554
:1016D000CF92DF92EF92FF920F931F93CF93DF93FE
:1016E000EC016A017B012115310579F4E881F9816A
:1016F0000190F081E02D642FDF91CF911F910F9128
:10170000FF90EF90DF90CF9009942A303105E9F4F3
:1017100077FF1AC06DE20E94E20A8C014427552728
:10172000BA014C195D096E097F092AE0CE010E94B9
:101730000F0B800F911FDF91CF911F910F91FF90A1
:10174000EF90DF90CF9008952AE0B701A601CE0177
:10175000DF91CF911F910F91FF90EF90DF90CF908D
:101760000C940F0B9A01AB01662757FD6095762FFD
:101770000C94680B4F925F926F927F928F929F9220
:10178000AF92BF92CF92DF92EF92FF920F931F938F
:10179000CF93DF93EC016A017B01B22E9A01AB017A
:1017A000C701B6010E94C20E882319F06DE171E0F5
:1017B00027C026013701E89477F82FEF3FEF4FE776
:1017C0005FE7C301B2010E94C20E81110DC02FEF6D
:1017D0003FEF4FE75FE7C301B2010E940C0D1816FF
:1017E0001CF461E271E00CC02FEF3FEF4FE75FE4C4
:1017F000C701B6010E945B0E1816ACF465E271E0F9
:10180000CE01DF91CF911F910F91FF90EF90DF906C
:10181000CF90BF90AF909F908F907F906F905F9090
:101820004F900C94CA0A2FEF3FEF4FE75FECC701D0
:10183000B6010E940C0D87FDE1CF20E030E0A90148
:10184000C701B6010E940C0D87FF0AC06DE2CE01F0
:101850000E94E20A8C01F7FAF094F7F8F09402C0C3
:1018600000E010E0A12C60E070E080E09FE3AB14AA
:1018700041F020E030E040E251E40E94100DA394DA
:10188000F6CF9B01AC01C701B6010E94A80C6B0109
:101890007C010E947D0D2B013C010E94A90D9B0142
:1018A000AC01C701B6010E94A70C6B017C012AE0C4
:1018B000B301A201CE010E940F0B080F191FBB201C
:1018C00039F069E271E0CE010E94CA0A080F191FBF
:1018D0007B2C772041F120E030E040E251E4C70169
:1018E000B6010E945F0E6B017C010E94780D4B01D6
:1018F000AA2497FCA094BA2C2AE030E0B501A401F8
:10190000CE010E94680B080F191FC501B4010E9487
:10191000AB0D9B01AC01C701B6010E94A70C6B0186
:101920007C017A94D6CFC801DF91CF911F910F919E
:10193000FF90EF90DF90CF90BF90AF909F908F90EF
:101940007F906F905F904F9008950C94BA0B505811
:10195000BB27AA270ED075C166D130F06BD120F01D
:1019600031F49F3F11F41EF45BC10EF4E095E7FBE8
:1019700051C1E92F77D180F3BA1762077307840743
:10198000950718F071F49EF58FC10EF4E0950B2EBB
:10199000BA2FA02D0B01B90190010C01CA01A001C1
:1019A0001124FF27591B99F0593F50F4503E68F11C
:1019B0001A16F040A22F232F342F4427585FF3CF5D
:1019C000469537952795A795F0405395C9F77EF42E
:1019D0001F16BA0B620B730B840BBAF09150A1F077
:1019E000FF0FBB1F661F771F881FC2F70EC0BA0FFD
:1019F000621F731F841F48F4879577956795B79585
:101A0000F7959E3F08F0B3CF9395880F08F099277C
:101A1000EE0F979587950895D9D008F481E0089541
:101A20000CD00FC107D140F0FED030F021F45F3F61
:101A300019F0F0C0511139C1F3C014D198F39923B2
:101A4000C9F35523B1F3951B550BBB27AA27621782
:101A50007307840738F09F5F5F4F220F331F441FC7
:101A6000AA1FA9F333D00E2E3AF0E0E830D09150FF
:101A70005040E695001CCAF729D0FE2F27D0660FEC
:101A8000771F881FBB1F261737074807AB07B0E82B
:101A900009F0BB0B802DBF01FF2793585F4F2AF041
:101AA0009E3F510568F0B6C000C15F3FECF3983E21
:101AB000DCF3869577956795B795F7959F5FC9F79E
:101AC000880F911D9695879597F90895E1E0660F27
:101AD000771F881FBB1F621773078407BA0720F0A0
:101AE000621B730B840BBA0BEE1F88F7E095089509
:101AF00004D06894B111D9C00895BCD088F09F5724
:101B000090F0B92F9927B751A0F0D1F0660F771F49
:101B1000881F991F1AF0BA95C9F712C0B13081F029
:101B2000C3D0B1E00895C0C0672F782F8827B85F71
:101B300039F0B93FCCF3869577956795B395D9F78A
:101B40003EF490958095709561957F4F8F4F9F4F94
:101B50000895E89409C097FB3EF4909580957095A0
:101B600061957F4F8F4F9F4F9923A9F0F92F96E9E9
:101B7000BB279395F695879577956795B795F1115E
:101B8000F8CFFAF4BB0F11F460FF1BC06F5F7F4FFB
:101B90008F4F9F4F16C0882311F096E911C077230D
:101BA00021F09EE8872F762F05C0662371F096E816
:101BB000862F70E060E02AF09A95660F771F881FE5
:101BC000DAF7880F9695879597F90895990F000889
:101BD000550FAA0BE0E8FEEF16161706E807F907FF
:101BE000C0F012161306E407F50798F0621B730B9A
:101BF000840B950B39F40A2661F0232B242B252B1B
:101C000021F408950A2609F4A140A6958FEF811DBD
:101C1000811D089597F99F6780E870E060E008955E
:101C20009FEF80EC089500240A94161617061806F4
:101C30000906089500240A941216130614060506D0
:101C40000895092E0394000C11F4882352F0BB0F61
:101C500040F4BF2B11F460FF04C06F5F7F4F8F4FC4
:101C60009F4F089557FD9058440F551F59F05F3FFF
:101C700071F04795880F97FB991F61F09F3F79F0AE
:101C800087950895121613061406551FF2CF469530
:101C9000F1DF08C0161617061806991FF1CF8695B2
:101CA0007105610508940895E894BB276627772796
:101CB000CB0197F908958ADF08F48FEF08950BD0D0
:101CC000C0CFB1DF28F0B6DF18F0952309F0A2CF1E
:101CD000A7CF1124EACFC6DFA0F3959FD1F3950FCC
:101CE00050E0551F629FF001729FBB27F00DB11DA0
:101CF000639FAA27F00DB11DAA1F649F6627B00D30
:101D0000A11D661F829F2227B00DA11D621F739F18
:101D1000B00DA11D621F839FA00D611D221F749F26
:101D20003327A00D611D231F849F600D211D822F6D
:101D3000762F6A2F11249F5750408AF0E1F08823B4
:101D40004AF0EE0FFF1FBB1F661F771F881F9150C1
:101D50005040A9F79E3F510570F05CCFA6CF5F3F82
:101D6000ECF3983EDCF3869577956795B795F795F4
:101D7000E7959F5FC1F7FE2B880F911D969587957C
:101D800097F9089523DF880B990B0895A1E21A2E85
:101D9000AA1BBB1BFD010DC0AA1FBB1FEE1FFF1F0F
:101DA000A217B307E407F50720F0A21BB30BE40B5F
:101DB000F50B661F771F881F991F1A9469F76095A6
:101DC0007095809590959B01AC01BD01CF01089560
:101DD000EE0FFF1F0590F491E02D0994F894FFCFCA
:101DE000000000022000015B002C005D00000000EC
:101DF000000209A20AA808D508BA08F7086E616EA1
:0C1E000000696E66006F7666002E000020
:00000001FF
